:100000000C94D1000C94EE000C94740F0C94EE0040
:100010000C94EE000C94EE000C94EE000C941C0B6F
:100020000C94EE000C94680A0C94A40A0C94E00A58
:100030000C94EE000C94EE000C94EE000C94EE0088
:100040000C94EE000C94610C0C94980C0C94CF0C56
:100050000C94EE000C94EE000C94EE000C94EE0068
:100060000C94EE000C94EE000C94EE000C94EE0058
:100070000C94EE000C94EE000C94EE000C94EE0048
:100080000C94EE000C94EE000C94EE000C94EE0038
:100090000C94EE000C94150E0C944C0E0C94830EE4
:1000A0006E616E00696E660000407A10F35A00A01F
:1000B000724E18090010A5D4E80000E87648170031
:1000C00000E40B54020000CA9A3B000000E1F50571
:1000D000000080969800000040420F000000A086BB
:1000E00001000000102700000000E80300000000ED
:1000F0006400000000000A00000000000100000091
:1001000000002C76D888DC674F0823DFC1DFAE59AA
:10011000E1B1B796E5E3E453C63AE651997696E83D
:10012000E6C28426EB898C9B62ED407C6FFCEFBCC1
:100130009C9F40F2BAA56FA5F490055A2AF75C93EC
:100140006B6CF9676DC11BFCE0E40D47FEF520E622
:10015000B500D0ED902E0300943577050080841E05
:10016000080000204E0A000000C80C333333330F60
:10017000986E12831141EF8D2114893BE65516CFFD
:10018000FEE6DB18D1844B381BF77C1D901DA4BB09
:10019000E424203284725E228100C9F124ECA1E5BE
:1001A0003D2711241FBECFEFCDBFDFE3DEBF18E236
:1001B000A0E0B8E2EEEEFBE402C005900D92A0389C
:1001C000B107D9F72BE2A0E8B8E201C01D92AD3229
:1001D000B207E1F70E948C1C0C948E250C94000051
:1001E000CF93DF9300D0CDB7DEB789839A8389811F
:1001F0009A8161E070E00E941B0660E070E080E0A0
:1002000090E00E94260584E00F900F90DF91CF913F
:100210000895CF93DF9300D01F92CDB7DEB78983C7
:100220006A834B83000089810E9484058823D9F367
:10023000CE010396BC0180EF90E00E942605CE011E
:10024000029661E070E00E941B0660E070E084E2CC
:100250009AE00E9440050E94690600000E94EF0596
:100260008130E1F300002396CDBFDEBFDF91CF9157
:100270000895CF93DF9300D0CDB7DEB789839A83FB
:1002800089819A8161E070E00E941B0660E070E065
:1002900080E090E00E94260582E00F900F90DF91B1
:1002A000CF910895CF93DF93CDB7DEB72697CDBF1B
:1002B000DEBF8D836E838AE28C8382E090E0898347
:1002C0009A8329C000008D810E9484058823D9F378
:1002D000CE010496BC0189E391E00E942605CE017F
:1002E000069661E070E00E941B0660E070E084E228
:1002F0009AE00E9440050E9469060E94EF058B83E8
:100300008B818130D1F38B81882351F089819A814F
:10031000019789839A8389819A81892B99F601C0F3
:1003200000008C812696CDBFDEBFDF91CF9108956E
:10033000CF93DF9300D0CDB7DEB789839A838981CD
:100340009A81FC012081318189819A81FC0182811D
:100350009381B9010E941B0660E070E080E090E0AC
:100360000E94260582E00F900F90DF91CF910895B3
:10037000CF93DF93CDB7DEB72A97CDBFDEBF8D8396
:100380006E834F83588729873A878F8198858B831F
:100390009C8389859A8589839A8300008D810E9438
:1003A00084058823D9F3CE010196BC0188E991E048
:1003B0000E942605CE01069661E070E00E941B06B1
:1003C00060E070E084E29AE00E9440050E946906C5
:1003D00000000E94EF058130E1F300002A96CDBFB6
:1003E000DEBFDF91CF910895CF93DF93CDB7DEB716
:1003F0000E94390380E094E021E0FC01208380E248
:1004000094E021E0FC01208380E494E020E4FC01FE
:10041000208380E694E020E8FC01208380E894E0DB
:1004200027E0FC01208380EA94E0FC01108280E058
:1004300094E0FC01148280E294E0FC01148280E4E8
:1004400094E020E4FC01248380E694E0FC01148223
:1004500080E894E0FC01148280EA94E0FC011482BC
:1004600080E094E0FC01108A80E094E0FC01118AB5
:1004700080E094E0FC01128A80E094E0FC01138AA1
:1004800080E094E0FC01148A80E094E0FC01158A8D
:1004900080E094E0FC01168A80E094E0FC01178A79
:1004A00080E294E0FC01108A80E294E0FC01118A71
:1004B00080E294E0FC01128A80E294E0FC01138A5D
:1004C00080E294E0FC01148A80E294E0FC01158A49
:1004D00080E294E0FC01168A80E294E0FC01178A35
:1004E00080E494E0FC01108A80E494E0FC01118A2D
:1004F00080E494E0FC01128A80E494E0FC01138A19
:1005000080E494E0FC01148A80E494E0FC01158A04
:1005100080E494E0FC01168A80E494E0FC01178AF0
:1005200080E694E0FC01108A80E694E0FC01118AE8
:1005300080E694E0FC01128A80E694E0FC01138AD4
:1005400080E694E0FC01148A80E694E0FC01158AC0
:1005500080E694E0FC01168A80E694E0FC01178AAC
:1005600080E894E0FC01108A80E894E0FC01118AA4
:1005700080E894E0FC01128A80E894E0FC01138A90
:1005800080E894E0FC01148A80E894E0FC01158A7C
:1005900080E894E0FC01168A80E894E0FC01178A68
:1005A00080EA94E0FC01108A80EA94E0FC01118A60
:1005B00080EA94E0FC01128A80EA94E0FC01138A4C
:1005C00080EA94E0FC01148A80EA94E0FC01158A38
:1005D00080EA94E0FC01168A80EA94E0FC01178A24
:1005E00080EE95E0FC01118280EE95E0FC01108226
:1005F00080EE95E024E0FC01248380EE95E0FC0190
:10060000158280EE95E0FC01138280EE95E0FC01FE
:10061000128284EE93E00E94D1038FEF93E00E9458
:10062000EC038AE194E00E94070485E394E00E94D1
:10063000220480E594E00E943D048BE694E00E9451
:10064000580486E894E00E94730481EA94E00E94D2
:100650008E048CEB94E00E94A90487ED94E00E9444
:10066000C40482EF94E00E94DF040000DF91CF9188
:100670000895CF93DF93CDB7DEB72697CDBFDEBF0A
:10068000198212C08981882F90E080579B4F298161
:10069000222F30E020573B4FF90120812860FC01D8
:1006A000208389818F5F89838981883058F31A82FA
:1006B00012C08A81882F90E080559B4F2A81222F7B
:1006C00030E020553B4FF90120812860FC01208358
:1006D0008A818F5F8A838A81883058F31B8212C097
:1006E0008B81882F90E0805F9B4F2B81222F30E001
:1006F000205F3B4FF90120812860FC0120838B8122
:100700008F5F8B838B81883058F31C8212C08C8161
:10071000882F90E0805D9B4F2C81222F30E0205D60
:100720003B4FF90120812860FC0120838C818F5F81
:100730008C838C81883058F31D8212C08D81882F64
:1007400090E0805B9B4F2D81222F30E0205B3B4F60
:10075000F90120812860FC0120838D818F5F8D83CA
:100760008D81883058F31E8212C08E81882F90E0D0
:1007700080599B4F2E81222F30E020593B4FF901A9
:1007800020812860FC0120838E818F5F8E838E8183
:10079000883058F300002696CDBFDEBFDF91CF91A1
:1007A0000895CF93DF9300D0CDB7DEB789839A83C6
:1007B00089819A81809380289093812800000F90EE
:1007C0000F90DF91CF910895CF93DF93CDB7DEB730
:1007D0000000DF91CF910895CF93DF9300D0CDB784
:1007E000DEB789839A8389819A8180938228909346
:1007F000832800000F900F90DF91CF910895CF9341
:10080000DF93CDB7DEB70000DF91CF910895CF938E
:10081000DF9300D0CDB7DEB789839A8389819A812F
:10082000809384289093852800000F900F90DF918B
:10083000CF910895CF93DF93CDB7DEB70000DF915E
:10084000CF910895CF93DF9300D0CDB7DEB78983E2
:100850009A8389819A8180938628909387280000C3
:100860000F900F90DF91CF910895CF93DF93CDB785
:10087000DEB70000DF91CF910895CF93DF9300D0D2
:10088000CDB7DEB789839A8389819A81809388283E
:100890009093892800000F900F90DF91CF910895D9
:1008A000CF93DF93CDB7DEB70000DF91CF910895EE
:1008B000CF93DF9300D0CDB7DEB789839A83898148
:1008C0009A8180938A2890938B2800000F900F9034
:1008D000DF91CF910895CF93DF93CDB7DEB70000BE
:1008E000DF91CF910895CF93DF9300D0CDB7DEB7DE
:1008F00089839A8389819A8180938C2890938D280B
:1009000000000F900F90DF91CF910895CF93DF9368
:10091000CDB7DEB70000DF91CF910895CF93DF937D
:1009200000D0CDB7DEB789839A8389819A8180937D
:100930008E2890938F2800000F900F90DF91CF9119
:100940000895CF93DF93CDB7DEB70000DF91CF914D
:100950000895CF93DF9300D0CDB7DEB789839A8314
:1009600089819A81809390289093912800000F901C
:100970000F90DF91CF910895CF93DF93CDB7DEB77E
:100980000000DF91CF910895CF93DF9300D0CDB7D2
:10099000DEB789839A8389819A8180939228909384
:1009A000932800000F900F90DF91CF910895CF937F
:1009B000DF93CDB7DEB70000DF91CF910895CF93DD
:1009C000DF9300D0CDB7DEB789839A8389819A817E
:1009D000809394289093952800000F900F90DF91BA
:1009E000CF910895CF93DF93CDB7DEB70000DF91AD
:1009F000CF910895CF93DF9300D01F92CDB7DEB78C
:100A000089839A836B8389819A814B8168ED0E94E7
:100A1000310A00002396CDBFDEBFDF91CF9108954C
:100A2000CF93DF93CDB7DEB760E080E191E00E9425
:100A3000FA0480E191E0FC01128280E191E0FC0186
:100A40001382789480E0DF91CF910895CF93DF9364
:100A500000D000D0CDB7DEB789839A836B837C83C7
:100A60002B813C8189819A81A901BC0180E00E948F
:100A7000CB0800002496CDBFDEBFDF91CF91089553
:100A8000CF93DF9300D000D0CDB7DEB789839A83B0
:100A90006B837C832B813C8189819A81A901BC0174
:100AA00082E00E94CB0800002496CDBFDEBFDF911C
:100AB000CF910895CF93DF93CDB7DEB780EA98E06A
:100AC000FC01108280EA98E0FC01128280EA98E042
:100AD00025E0FC01268380EA98E021E0FC012383E5
:100AE00080EA98E0FC01158280EA98E0FC01178218
:100AF00080EA98E0FC01148280EA98E0FC0110860C
:100B000080E0DF91CF910895CF93DF9300D0CDB7F0
:100B1000DEB78A8381E089838091B9288470882335
:100B200009F057C08A818093B2288091B9288D7FBF
:100B30008093B9288091B92884608093B9288091E6
:100B4000B9288E7F8093B9288EE08093B72884EFF0
:100B500091E08093B0289093B1288091B928886063
:100B60008093B92881EB98E08093962890939728FA
:100B70001092A2281092A32881EB98E080939828E5
:100B8000909399281092A4281092A52881EB98E0C0
:100B900080939A2890939B281092A6281092A728B9
:100BA00081EB98E080939C2890939D281092A82830
:100BB0001092A9288EEB98E080939E2890939F280E
:100BC0001092AA281092AB280E945D090E94240965
:100BD000198289810F900F90DF91CF910895CF9363
:100BE000DF931F92CDB7DEB781E089830E9435097C
:100BF000882341F08091B9288D7F8093B92882E0C5
:100C00008093B8288091B9288270882379F48091E4
:100C1000B9288B7F8093B9288FEF8093B2280E94E8
:100C200024090E9413098091B828898389810F9033
:100C3000DF91CF910895CF93DF9300D000D0CDB74F
:100C4000DEB789839A836B837C838091B92888700F
:100C5000882389F089819A818093B3289093B4285E
:100C60008B819C818093B5289093B6288091B92878
:100C7000877F8093B92800002496CDBFDEBFDF9127
:100C8000CF910895CF93DF9300D0CDB7DEB78A839D
:100C900081E089838091B92882708823A1F48091B2
:100CA000B92882608093B92819828A81882321F02B
:100CB00081E08093B72803C082E08093B7280E9428
:100CC0007E080E94730689810F900F90DF91CF916B
:100CD0000895CF93DF93CDB7DEB780E00E94420640
:100CE000DF91CF910895CF93DF93CDB7DEB704C0E6
:100CF0000E9499090E947E088091B92882708823F9
:100D0000B9F70000DF91CF910895CF93DF93CDB76E
:100D1000DEB70E945D098091B9288D7F8093B92844
:100D20001092B8288EE0DF91CF910895CF93DF9392
:100D3000CDB7DEB78091B9288D7F8093B928109206
:100D4000B82880E0DF91CF910895CF93DF93CDB79E
:100D5000DEB70E94F406DF91CF910895CF93DF9321
:100D6000CDB7DEB70E940A07DF91CF910895CF93E8
:100D7000DF93CDB7DEB70E94F406DF91CF910895DF
:100D8000CF93DF93CDB7DEB70E94B2090E949606DB
:100D9000DF91CF910895CF93DF93CDB7DEB78091E8
:100DA000B9288E7F8093B92882E08093B82820915B
:100DB0009A2830919B288091A6289091A728F90124
:100DC0000995882F90E08230910519F0039721F062
:100DD00006C00E94A50605C00E94AE0602C00E9481
:100DE000C006DF91CF910895CF93DF93CDB7DEB7E3
:100DF0008091B92881608093B9288091B228882F8A
:100E000090E0880F991F81600E94F20984E0DF91D1
:100E1000CF910895CF93DF93CDB7DEB78091B928F6
:100E200081608093B9288091B228880F0E94F209CE
:100E300083E0DF91CF910895CF93DF93CDB7DEB7F5
:100E40000E94020A84E0DF91CF910895CF93DF934F
:100E5000CDB7DEB70E94020A83E0DF91CF910895FB
:100E6000CF93DF93CDB7DEB70E94130A0E94B20979
:100E70000E949606DF91CF910895CF93DF93CDB76F
:100E8000DEB70E94130A88E0DF91CF910895CF93D7
:100E9000DF93CDB7DEB70E94C3098823D9F0209134
:100EA0009C2830919D288091A8289091A928F9012B
:100EB0000995882F90E08230910519F0039721F071
:100EC00006C00E94A5062CC00E94AE0629C00E9442
:100ED000C00626C08091B9288E7F8093B928809162
:100EE000B3289091B4289C012F5F3F4F2093B328E3
:100EF0003093B428FC0180810E94E2098091B528DA
:100F00009091B62801978093B5289093B628809148
:100F1000B5289091B628892B11F083E001C085E0B7
:100F2000DF91CF9108950F931F93CF93DF93CDB7A8
:100F3000DEB78091B9288E7F8093B9288091B5283B
:100F40009091B628019719F40E94130A02C00E94DA
:100F5000020A8091B5289091B62801978093B52810
:100F60009093B6288091B5289091B628892BA9F046
:100F70000091B3281091B4280E94D709F80180830A
:100F80008091B3289091B42801968093B3289093D0
:100F9000B4280E94770984E02AC00091B3281091F8
:100FA000B4280E94D709F80180838091B3289091DA
:100FB000B42801968093B3289093B4288091B928DF
:100FC00088608093B9282091962830919728809145
:100FD000A2289091A328F9010995882F90E0029703
:100FE000029718F40E943D0702C00E943007DF916B
:100FF000CF911F910F910895CF93DF93CDB7DEB7B7
:101000000E94C3098823D9F020919C2830919D2803
:101010008091A8289091A928F9010995882F90E03E
:101020008230910519F0039721F006C00E94A506B1
:101030002AC00E94AE0627C00E94C00624C080912C
:10104000B92888608093B9282091962830919728F4
:101050008091A2289091A328F9010995882F90E00A
:101060008330910541F08430910541F0029749F4B5
:101070000E94A50608C00E94AE0605C00E94470750
:1010800002C00E94C006DF91CF910895CF93DF93F5
:10109000CDB7DEB70E94880982E08093B8282091FE
:1010A0009828309199288091A4289091A528F90139
:1010B0000995882F90E08230910519F0039721F06F
:1010C00006C00E94A50605C00E94AE0602C00E948E
:1010D0008506DF91CF910895CF93DF93CDB7DEB72B
:1010E0000E945D098091B9288D7F8093B92882E0A4
:1010F0008093B8288EE0DF91CF910895CF93DF934E
:10110000CDB7DEB70E9424098091B9288170882369
:1011100039F00E94C309882319F08FE08093B72823
:101120000E944909882319F080E18093B7280E9422
:101130003509882319F081E18093B7288091B72879
:10114000882F90E0880F991F8050984DFC01808176
:101150009181FC0109958093B7280000DF91CF9120
:101160000895CF93DF9300D0CDB7DEB789839A83FC
:1011700081E00F900F90DF91CF910895CF93DF938F
:1011800000D0CDB7DEB789839A8385E00F900F90AA
:10119000DF91CF910895CF93DF93CDB7DEB7259739
:1011A000CDBFDEBF89836A837B834C835D838A8165
:1011B0009B81892BD1F08981882F90E0880F991F1E
:1011C0008A56974D2A813B81FC0120833183898196
:1011D000882F90E00696880F991F8A56974D2C818C
:1011E0003D81FC012083318317C08981882F90E0E5
:1011F000880F991F8A56974D21EB38E0FC01208318
:1012000031838981882F90E00696880F991F8A562E
:10121000974DFC011082118200002596CDBFDEBFE4
:10122000DF91CF910895CF93DF93CDB7DEB780EAFA
:1012300098E020EA38E0F90123812F73FC01238331
:101240000000DF91CF910895CF93DF93CDB7DEB744
:1012500080EA98E020EA38E0F9012581206CFC0161
:1012600025830000DF91CF910895CF93DF93CDB711
:10127000DEB780EA98E0FC018581882F90E08470D9
:10128000992721E0892B09F420E0822FDF91CF916B
:101290000895CF93DF93CDB7DEB780EA98E0FC01E5
:1012A0008581882F90E08870992721E0892B09F4A7
:1012B00020E0822FDF91CF910895CF93DF93CDB7B8
:1012C000DEB780EA98E020EA38E0F901248128605E
:1012D000FC01248380EA98E020EA38E0F9012581C6
:1012E0002160FC0125830000DF91CF910895CF9309
:1012F000DF93CDB7DEB780EA98E020EA38E0F90165
:1013000024812260FC0124830000DF91CF910895A5
:10131000CF93DF93CDB7DEB780EA98E020EA38E0DC
:10132000F90125812860FC0125830000DF91CF9120
:101330000895CF93DF93CDB7DEB7000080EA98E041
:10134000FC018581882354F080EA98E0FC018581C6
:10135000882F90E080749927892B81F30000DF911A
:10136000CF910895CF93DF93CDB7DEB780EA98E0B1
:1013700020EA38E0F90124812360FC012483000085
:10138000DF91CF910895CF93DF93CDB7DEB780EA99
:1013900098E0FC018581882F90E08071992721E0F9
:1013A000892B09F420E0822FDF91CF910895CF930C
:1013B000DF93CDB7DEB780EA98E0FC018085DF914E
:1013C000CF910895CF93DF931F92CDB7DEB7898376
:1013D00080EA98E02981FC01208700000F90DF91CE
:1013E000CF910895CF93DF931F92CDB7DEB7898356
:1013F00080EA98E02981FC01278300000F90DF91AB
:10140000CF910895CF93DF93CDB7DEB780EA98E010
:1014100020EA38E0F90124812B7FFC0124830000BD
:10142000DF91CF910895CF93DF93CDB7DEB780EAF8
:1014300098E020EA38E0F90124812460FC0124834B
:101440000000DF91CF910895CF93DF9300D0CDB707
:10145000DEB789839A8383E00F900F90DF91CF915D
:101460000895FC0164BF40830895CF93DF93CDB707
:10147000DEB70000DF91CF910895CF93DF93CDB712
:10148000DEB70000DF91CF910895CF93DF93CDB702
:10149000DEB70000DF91CF910895CF93DF93CDB7F2
:1014A000DEB70000DF91CF910895CF93DF9300D096
:1014B000CDB7DEB789839A8389819A8180932A2860
:1014C00090932B2800000F900F90DF91CF910895FB
:1014D0001F920F9200903F000F9211242F933F9381
:1014E0004F935F936F937F938F939F93AF93BF932C
:1014F000EF93FF93CF93DF93CDB7DEB7809124288E
:1015000090912528892B31F08091242890912528CD
:10151000FC01099580E09AE020E1FC0123870000AE
:10152000DF91CF91FF91EF91BF91AF919F918F91FB
:101530007F916F915F914F913F912F910F9000920A
:101540003F000F901F9018951F920F9200903F0040
:101550000F9211242F933F934F935F936F937F9339
:101560008F939F93AF93BF93EF93FF93CF93DF93AB
:10157000CDB7DEB78091262890912728892B31F0AE
:101580008091262890912728FC01099580E09AE017
:1015900020E2FC0123870000DF91CF91FF91EF91C2
:1015A000BF91AF919F918F917F916F915F914F917B
:1015B0003F912F910F9000923F000F901F90189530
:1015C0001F920F9200903F000F9211242F933F9390
:1015D0004F935F936F937F938F939F93AF93BF933B
:1015E000EF93FF93CF93DF93CDB7DEB78091282899
:1015F00090912928892B31F08091282890912928D1
:10160000FC01099580E09AE020E4FC0123870000BA
:10161000DF91CF91FF91EF91BF91AF919F918F910A
:101620007F916F915F914F913F912F910F90009219
:101630003F000F901F9018951F920F9200903F004F
:101640000F9211242F933F934F935F936F937F9348
:101650008F939F93AF93BF93EF93FF93CF93DF93BA
:10166000CDB7DEB780912A2890912B28892B31F0B5
:1016700080912A2890912B28FC01099580E09AE01E
:1016800021E0FC0123870000DF91CF91FF91EF91D2
:10169000BF91AF919F918F917F916F915F914F918A
:1016A0003F912F910F9000923F000F901F9018953F
:1016B000CF93DF93CDB7DEB780E09AE026E938E933
:1016C000FC0120A731A780E09AE026E938E9FC0177
:1016D00022A733A780E09AE026E938E9FC0124A795
:1016E00035A780E09AE0FC0110A211A280E09AE008
:1016F000FC01118280E09AE0FC01128280E09AE015
:10170000FC01138280E09AE0FC01148280E09AE000
:10171000FC01158280E09AE0FC01168280E09AE0EC
:10172000FC01178280E09AE0FC01168680E09AE0D6
:10173000FC01118680E09AE021E0FC01228780E034
:101740009AE0FC01138680E09AE026E938E9FC0182
:1017500026A337A380E09AE0FC01178680E09AE098
:101760002CE0FC01208380E0DF91CF910895CF939E
:10177000DF9300D01F92CDB7DEB789836A837B8366
:1017800089810E94F70C80E090E02396CDBFDEBFF8
:10179000DF91CF910895CF93DF9300D0CDB7DEB71F
:1017A00080E098E0FC01808189838091C2288F5F6E
:1017B00087708A838091C3289A81981781F08A81E3
:1017C0008093C2288A81882F90E08654974D298182
:1017D000FC0120838091C4288F5F8093C42800007F
:1017E0000F900F90DF91CF910895CF93DF931F92C9
:1017F000CDB7DEB78091CF288823C1F08091CE2865
:101800008F5F8770898389818093CE2880E098E0FC
:101810002981222F30E02B53374DF9012081FC0123
:1018200022838091CF2881508093CF288091CF2828
:10183000882349F480E098E020E038E0F901258130
:101840002F7DFC01258300000F90DF91CF9108953B
:10185000CF93DF9300D01F92CDB7DEB789839A83F1
:101860006B838B81882F90E08130910519F002976E
:1018700041F00EC089819A8180933A2890933B2849
:1018800007C089819A8180933C2890933D2800006D
:1018900000002396CDBFDEBFDF91CF910895CF9397
:1018A000DF9300D0CDB7DEB789839A8389819A818F
:1018B00061E00E94280C00000F900F90DF91CF9103
:1018C00008951F920F9200903F000F9211242F93C2
:1018D0003F934F935F936F937F938F939F93AF93B8
:1018E000BF93EF93FF93CF93DF93CDB7DEB7809194
:1018F0003A2890913B28892B31F080913A28909199
:101900003B28FC0109950000DF91CF91FF91EF91F9
:10191000BF91AF919F918F917F916F915F914F9107
:101920003F912F910F9000923F000F901F901895BC
:101930001F920F9200903F000F9211242F933F931C
:101940004F935F936F937F938F939F93AF93BF93C7
:10195000EF93FF93CF93DF93CDB7DEB780913C2811
:1019600090913D28892B31F080913C2890913D2821
:10197000FC0109950000DF91CF91FF91EF91BF919C
:10198000AF919F918F917F916F915F914F913F9117
:101990002F910F9000923F000F901F9018951F926B
:1019A0000F9200903F000F9211242F933F938F933B
:1019B0009F93EF93FF93CF93DF93CDB7DEB780E094
:1019C00098E020E038E0F90124812064FC012483C0
:1019D0000000DF91CF91FF91EF919F918F913F9107
:1019E0002F910F9000923F000F901F901895CF936A
:1019F000DF9300D0CDB7DEB78A838091CD288F5F8B
:101A00008770898300008091CF288830E1F3898135
:101A1000882F90E08B53974D2A81FC012083898188
:101A20008093CD280FB6F8940F928091CF288F5FC6
:101A30008093CF280F900FBE80E098E020E038E040
:101A4000F90125812062FC01258300000F900F9091
:101A5000DF91CF910895CF93DF931F92CDB7DEB77B
:101A600080E098E025E430E0FC012087318780E0C9
:101A700098E020E9FC01258380E098E020ECFC015F
:101A8000268380E098E023E0FC01278380E098E053
:101A9000FC01138680E098E0FC01148680E098E069
:101AA000FC01168680E098E0FC0115861982898188
:101AB0008093C32889818093C22889818093C42818
:101AC00089818093CE2889818093CD2889818093D4
:101AD000CF288CE298E28093292B90932A2B000048
:101AE0000F90DF91CF910895CF93DF93CDB7DEB7FD
:101AF00080E098E0FC018081DF91CF910895CF9341
:101B0000DF9300D0CDB7DEB780E698E0FC0180819E
:101B100089838091D8288F5F87708A838091D928A4
:101B20009A81981781F08A818093D8288A81882F9A
:101B300090E08053974D2981FC0120838091DA2821
:101B40008F5F8093DA2800000F900F90DF91CF9184
:101B50000895CF93DF931F92CDB7DEB78091E5282C
:101B60008823C1F08091E4288F5F87708983898101
:101B70008093E42880E698E02981222F30E02552E6
:101B8000374DF9012081FC0122838091E5288150A5
:101B90008093E5288091E528882349F480E698E041
:101BA00020E638E0F90125812F7DFC012583000026
:101BB0000F90DF91CF910895CF93DF9300D01F92C4
:101BC000CDB7DEB789839A836B838B81882F90E0B2
:101BD0008130910519F0029741F00EC089819A81F8
:101BE00080933E2890933F2807C089819A818093F3
:101BF000402890934128000000002396CDBFDEBF0F
:101C0000DF91CF910895CF93DF9300D0CDB7DEB7AA
:101C100089839A8389819A8161E00E94DC0D0000AA
:101C20000F900F90DF91CF9108951F920F92009027
:101C30003F000F9211242F933F934F935F936F9325
:101C40007F938F939F93AF93BF93EF93FF93CF9324
:101C5000DF93CDB7DEB780913E2890913F28892B46
:101C600031F080913E2890913F28FC0109950000B9
:101C7000DF91CF91FF91EF91BF91AF919F918F91A4
:101C80007F916F915F914F913F912F910F900092B3
:101C90003F000F901F9018951F920F9200903F00E9
:101CA0000F9211242F933F934F935F936F937F93E2
:101CB0008F939F93AF93BF93EF93FF93CF93DF9354
:101CC000CDB7DEB78091402890914128892B31F023
:101CD0008091402890914128FC0109950000DF91F6
:101CE000CF91FF91EF91BF91AF919F918F917F9194
:101CF0006F915F914F913F912F910F9000923F0014
:101D00000F901F9018951F920F9200903F000F9216
:101D100011242F933F938F939F93EF93FF93CF9330
:101D2000DF93CDB7DEB780E698E020E638E0F90132
:101D300024812064FC0124830000DF91CF91FF9176
:101D4000EF919F918F913F912F910F9000923F00C3
:101D50000F901F901895CF93DF9300D0CDB7DEB7CB
:101D60008A838091E3288F5F877089830000809148
:101D7000E5288830E1F38981882F90E08552974DDE
:101D80002A81FC01208389818093E3280FB6F8948F
:101D90000F928091E5288F5F8093E5280F900FBE0A
:101DA00080E698E020E638E0F90125812062FC0118
:101DB000258300000F900F90DF91CF910895CF936E
:101DC000DF931F92CDB7DEB780E698E025E430E0E0
:101DD000FC012087318780E698E020E9FC0125831B
:101DE00080E698E020ECFC01268380E698E023E082
:101DF000FC01278380E698E0FC01138680E698E0EA
:101E0000FC01148680E698E0FC01168680E698E0E6
:101E1000FC011586198289818093D9288981809354
:101E2000D82889818093DA2889818093E428898160
:101E30008093E32889818093E52800000F90DF914B
:101E4000CF910895CF93DF93CDB7DEB780E698E0CA
:101E5000FC018081DF91CF910895CF93DF9300D073
:101E60001F92CDB7DEB789839A836B8389819A816C
:101E70004B8168ED0E94310A00002396CDBFDEBF82
:101E8000DF91CF910895CF93DF93CDB7DEB70E9456
:101E9000F4010E945F0F0E94C90F0E94BC0F0E94B4
:101EA000960F0E945A050E94DF0E0E942B0D0E9481
:101EB00010050E94580B0000DF91CF910895CF9339
:101EC000DF93CDB7DEB760E080E890E00E942D0F91
:101ED00080E890E0FC01118680E890E0FC0110862B
:101EE00080E0DF91CF9108951F920F9200903F0004
:101EF0000F9211242F938F939F93EF93FF93CF9380
:101F0000DF93CDB7DEB780E890E021E0FC012287C7
:101F10000000DF91CF91FF91EF919F918F912F91D1
:101F20000F9000923F000F901F901895CF93DF9372
:101F3000CDB7DEB760E088E790E00E942D0F60E04B
:101F40008CE790E00E942D0F60E080E790E00E9417
:101F50002D0F63E181E690E00E942D0F60E080E6A6
:101F600090E00E942D0F60E082E690E00E942D0F2D
:101F700080E0DF91CF910895CF93DF93CDB7DEB7A7
:101F800060E080E590E00E942D0F80E0DF91CF912E
:101F90000895CF93DF93CDB7DEB760E080E091E0A6
:101FA0000E942D0F80E0DF91CF910895CF93DF93B2
:101FB000CDB7DEB766EB80EE0E94AB170000DF9175
:101FC000CF910895CF93DF93CDB7DEB76897CDBF9C
:101FD000DEBF48E1CE010196BC0188E80E94CB1724
:101FE0008A81882F90E0382F22278981882F90E0DE
:101FF000820F931F80930D2990930E298C81882F37
:1020000090E0382F22278B81882F90E0820F931F3A
:1020100080930F29909310298E81882F90E0382F7C
:1020200022278D81882F90E0820F931F80931129A2
:10203000909312298885882F90E0382F22278F814E
:10204000882F90E0820F931F809313299093142977
:102050008A85882F90E0382F22278985882F90E065
:10206000820F931F80931529909316298C85882FB2
:1020700090E0382F22278B85882F90E0820F931FC6
:1020800080931729909318298E85882F90E0382FF8
:1020900022278D85882F90E0820F931F8093192926
:1020A00090931A298889882F90E0382F22278F85CE
:1020B000882F90E0820F931F80931B2990931C29F7
:1020C0008A89882F90E0382F22278989882F90E0ED
:1020D000820F931F80931D2990931E298C89882F2E
:1020E00090E0382F22278B89882F90E0820F931F52
:1020F00080931F29909320298E89882F90E0382F74
:1021000022278D89882F90E0820F931F80932129A9
:1021100090932229888D882F90E0382F22278F894D
:10212000882F90E0820F931F809323299093242976
:1021300081EA0E94BD178093252947E0CE010196D0
:10214000BC0181EE0E94CB178A81882F90E0382F46
:1021500022278981882F90E0820F931F8093262960
:10216000909327298B81809328298C81882F90E058
:102170009C0122953295307F3227207F32278D8136
:10218000882F90E08F709927822B932B8093292999
:1021900090932A298E81882F90E09C012295329578
:1021A000307F3227207F32278D8182958F70882F54
:1021B00090E0822B932B80932B2990932C298F8155
:1021C00080932D2900006896CDBFDEBFDF91CF91AF
:1021D0000895CF93DF931F92CDB7DEB789838981AE
:1021E000877087708295807F9091FE289F78892BD9
:1021F0008093FE2800000F90DF91CF910895CF9338
:10220000DF931F92CDB7DEB789838981877087708E
:10221000880F9091FE28917F892B8093FE280000E3
:102220000F90DF91CF910895CF93DF931F92CDB799
:10223000DEB78983898187708295880F807E90912F
:1022400008299F71892B8093082900000F90DF9146
:10225000CF910895CF93DF931F92CDB7DEB78983D7
:10226000898187708770880F880F90910829937EE5
:10227000892B8093082900000F90DF91CF9108955A
:10228000CF93DF931F92CDB7DEB789838981809387
:10229000FF2800000F90DF91CF910895CF93DF9337
:1022A0001F92CDB7DEB78983898183708370909147
:1022B00008299C7F892B8093082900000F90DF91CB
:1022C000CF910895CF93DF93CDB7DEB78091FE28ED
:1022D000682F85EF0E94AB178091FF28682F82EF4F
:1022E0000E94AB1780910829682F84EF0E94AB17DA
:1022F0000000DF91CF910895CF93DF93CDB7DEB784
:10230000809108298C7F8160809308298091082919
:10231000682F84EF0E94AB170000DF91CF910895E2
:10232000CF93DF93CDB7DEB70E94D1128093F92807
:102330008091F92883FB882780F9DF91CF91089558
:10234000EF92FF920F931F93CF93DF93CDB7DEB73A
:102350002897CDBFDEBF48E0CE010196BC0187EFD4
:102360000E94CB178F81882F90E0A0E0B0E0222759
:10237000382F492F5A2F8885882F90E0A0E0B0E0B1
:10238000822B932BA42BB52B8093FA289093FB28B8
:10239000A093FC28B093FD288C81882F90E0A0E0CA
:1023A000B0E09C01AD01012E1CE0220F331F441F41
:1023B000551F1A95D1F7102D8D81882F90E0A0E040
:1023C000B0E0880F991FAA1FBB1F880F991FAA1F73
:1023D000BB1F880F991FAA1FBB1F880F991FAA1F19
:1023E000BB1F7C018D018E8182958F70882F90E0BC
:1023F000A0E0B0E08E299F29A02BB12B822B932B3C
:10240000A42BB52B8093042990930529A09306292A
:10241000B09307298981882F90E0A0E0B0E09C016B
:10242000AD01012E1CE0220F331F441F551F1A95CA
:10243000D1F7102D8A81882F90E0A0E0B0E0880FBE
:10244000991FAA1FBB1F880F991FAA1FBB1F880FA8
:10245000991FAA1FBB1F880F991FAA1FBB1F7C01B2
:102460008D018B8182958F70882F90E0A0E0B0E085
:102470008E299F29A02BB12B822B932BA42BB52B1C
:102480008093002990930129A0930229B0930329F6
:1024900000002896CDBFDEBFDF91CF911F910F9135
:1024A000FF90EF900895CF93DF9300D000D0CDB789
:1024B000DEB70E94DF12DC01CB01BC01CD010E941E
:1024C000761EDC01CB0120E030E048EC52E4BC0198
:1024D000CD010E94CC1DDC01CB0189839A83AB83A3
:1024E000BC8389819A81AB81BC81BC01CD012496DA
:1024F000CDBFDEBFDF91CF910895CF93DF9300D0A2
:1025000000D0CDB7DEB70E94E413DC01CB01BC01E3
:10251000CD010E94741EDC01CB0120E030E04AE7CF
:1025200054E4BC01CD010E94CC1DDC01CB018983A8
:102530009A83AB83BC8389819A81AB81BC81BC01C6
:10254000CD012496CDBFDEBFDF91CF910895CF930B
:10255000DF9300D000D0CDB7DEB70E942C16DC018F
:10256000CB01BC01CD010E94741EDC01CB0120E037
:1025700030E040E854E4BC01CD010E94CC1DDC01F8
:10258000CB0189839A83AB83BC8389819A81AB8198
:10259000BC81BC01CD012496CDBFDEBFDF91CF91C0
:1025A0000895CF93DF93CDB7DEB783EF0E94BD17B9
:1025B0008093F9288091F928DF91CF910895AF9207
:1025C000BF92CF92DF92EF92FF920F931F93CF9320
:1025D000DF93CDB7DEB72C97CDBFDEBF8091042946
:1025E00090910529A0910629B09107299C01AD0180
:1025F000689412F855954795379527951694D1F715
:1026000080910D2990910E29CC01A0E0B0E0880FB7
:10261000991FAA1FBB1F281B390B4A0B5B0B80910C
:102620000F2990911029092E000CAA0BBB0BBC019D
:10263000CD010E941523DC01CB01072E7BE0B5956F
:10264000A795979587957A95D1F7702D89839A8369
:10265000AB83BC838091042990910529A091062920
:10266000B09107299C01AD01689413F855954795E1
:10267000379527951694D1F780910D2990910E29C1
:10268000CC01A0E0B0E079018A01E81AF90A0A0B4E
:102690001B0B8091042990910529A0910629B091E6
:1026A00007299C01AD01689413F855954795379516
:1026B00027951694D1F780910D2990910E29CC0180
:1026C000A0E0B0E059016A01A81AB90ACA0ADB0AF7
:1026D000D601C501A8019701BC01CD010E941523B7
:1026E000DC01CB019C01AD01012E1CE05595479505
:1026F000379527951A95D1F7102D80911129909132
:102700001229092E000CAA0BBB0BBC01CD010E94A3
:102710001523DC01CB01072E7EE0B595A795979593
:1027200087957A95D1F7702D8D839E83AF83B88777
:1027300029813A814B815C818D819E81AF81B885F1
:10274000820F931FA41FB51F8093092990930A2914
:10275000A0930B29B0930C292091092930910A29C3
:1027600040910B2950910C29DA01C901880F991F5A
:10277000AA1FBB1F880F991FAA1FBB1F820F931F81
:10278000A41FB51F80589F4FAF4FBF4F892F9A2F5F
:10279000AB2FBB27A7FDBA9589879A87AB87BC87E4
:1027A00089859A85AB85BC85BC01CD012C96CDBFB2
:1027B000DEBFDF91CF911F910F91FF90EF90DF90DF
:1027C000CF90BF90AF900895EF92FF920F931F9319
:1027D000CF93DF93CDB7DEB72C97CDBFDEBF80910F
:1027E000092990910A29A0910B29B0910C29B5953E
:1027F000A795979587959A5FA109B10989839A83CF
:10280000AB83BC8389819A81AB81BC819C01AD0182
:10281000559547953795279555954795379527951C
:1028200089819A81AB81BC81B595A795979587954C
:10283000B595A79597958795BC01CD010E94152365
:10284000DC01CB019C01AD01012E1BE055954795A4
:10285000379527951A95D1F7102D80911D299091C4
:102860001E29092E000CAA0BBB0BBC01CD010E9436
:102870001523DC01CB018D839E83AF83B8878091C4
:102880001B2990911C299C01990F440B550B8981A0
:102890009A81AB81BC81BC01CD010E941523DC0172
:1028A000CB019C01AD01220F331F441F551F8D81A9
:1028B0009E81AF81B885820F931FA41FB51F8D83A2
:1028C0009E83AF83B8878D819E81AF81B8859C013F
:1028D000AD0155954795379527955595479537956A
:1028E00027958091192990911A29092E000CAA0B7D
:1028F000BB0BDC0199278827820F931FA41FB51FEC
:102900008D839E83AF83B887809117299091182972
:102910007C01990F000B110B89819A81AB81BC81DD
:102920009C01AD0155954795379527955595479548
:102930003795279589819A81AB81BC81B595A795FB
:1029400097958795B595A79597958795BC01CD01E6
:102950000E941523DC01CB01072E7DE0B595A795DC
:10296000979587957A95D1F7702DA8019701BC01AD
:10297000CD010E941523DC01CB017C018D016894FF
:1029800012F815950795F794E7941694D1F780916E
:102990001529909116299C01990F440B550B89819B
:1029A0009A81AB81BC81BC01CD010E941523DC0161
:1029B000CB01B595A795979587958E0D9F1DA01F67
:1029C000B11F072E72E1B595A795979587957A95D2
:1029D000D1F7702D89839A83AB83BC8389819A81D7
:1029E000AB81BC819C01AD0130584F4F5F4F80914E
:1029F000132990911429CC01A0E0B0E0BC01CD01D5
:102A00000E941523DC01CB01072E7FE0B595A79529
:102A1000979587957A95D1F7702D89839A83AB83A3
:102A2000BC8389819A81AB81BC81892B8A2B8B2BBA
:102A300021F480E090E0DC0103C1809100299091B5
:102A40000129A0910229B0910329B095A0959095F4
:102A500081959F4FAF4FBF4F2D813E814F8158854C
:102A6000012E1CE055954795379527951A95D1F776
:102A7000102D7C018D01E21AF30A040B150BA8013D
:102A8000970185E39CE0DC010E945B23DC01CB0124
:102A9000A05BBC4389879A87AB87BC8789859A8569
:102AA000AB85BC85BB23BCF089859A85AB85BC858D
:102AB000880F991FAA1FBB1F29813A814B815C8116
:102AC000BC01CD010E943923DA01C90189879A87A7
:102AD000AB87BC8716C089859A85AB85BC85298163
:102AE0003A814B815C81BC01CD010E943923DA011E
:102AF000C901880F991FAA1FBB1F89879A87AB87B7
:102B0000BC8780912329909124297C01990F000B87
:102B1000110B89859A85AB85BC859C01AD016894B4
:102B200012F856954795379527951694D1F78985CC
:102B30009A85AB85BC85689412F8B695A79597954C
:102B400087951694D1F7BC01CD010E941523DC01B5
:102B5000CB01072E7DE0B695A795979587957A9539
:102B6000D1F7702DA8019701BC01CD010E9415235A
:102B7000DC01CB01072E7CE0B595A795979587954D
:102B80007A95D1F7702D89839A83AB83BC8389852D
:102B90009A85AB85BC85B695A79597958795B6958B
:102BA000A795979587959C01AD01809121299091DA
:102BB0002229092E000CAA0BBB0BBC01CD010E94DF
:102BC0001523DC01CB01072E7DE0B595A7959795E0
:102BD00087957A95D1F7702D8D839E83AF83B887C3
:102BE00029813A814B815C818D819E81AF81B8853D
:102BF000280F391F4A1F5B1F80911F2990912029A0
:102C0000092E000CAA0BBB0B820F931FA41FB51F2C
:102C1000689413F8B595A795979587951694D1F76D
:102C200029853A854B855C85820F931FA41FB51FAC
:102C300089879A87AB87BC8789859A85AB85BC8550
:102C4000BC01CD012C96CDBFDEBFDF91CF911F918E
:102C50000F91FF90EF900895AF92BF92CF92DF92C5
:102C6000EF92FF920F931F93CF93DF93CDB7DEB711
:102C70002897CDBFDEBF8091092990910A29A091A4
:102C80000B29B0910C299C52A140B10989839A83E8
:102C9000AB83BC838091FA289091FB28A091FC28FB
:102CA000B091FD289C01AD01012E1EE0220F331FC3
:102CB000441F551F1A95D1F7102D80912929909105
:102CC0002A29092E000CAA0BBB0B072E74E1880FD2
:102CD000991FAA1FBB1F7A95D1F7702D79018A0120
:102CE000E81AF90A0A0B1B0B80912B2990912C29C9
:102CF0009C01990F440B550B89819A81AB81BC8152
:102D0000BC01CD010E941523DC01CB01A801970174
:102D1000281B390B4A0B5B0BDA01C901905CAF4FE2
:102D2000BF4F7C018D010D2EDFE015950795F794BF
:102D3000E794DA95D1F7D02D80912D29282F880F8F
:102D4000330B440B550B89819A81AB81BC81BC014B
:102D5000CD010E941523DC01CB015C016D01092E20
:102D60009AE0D594C794B794A7949A95D1F7902DEB
:102D700080912829282F30E040E050E089819A8115
:102D8000AB81BC81BC01CD010E941523DC01CB01CC
:102D9000072E7BE0B595A795979587957A95D1F7FE
:102DA000702D9058AF4FBF4FA6019501BC01CD01CA
:102DB0000E941523DC01CB01072E7AE0B595A7957B
:102DC000979587957A95D1F7702D9C01AD01405E5E
:102DD0005F4F8091262990912729092E000CAA0B7C
:102DE000BB0BBC01CD010E941523DC01CB01905E21
:102DF000AF4FBF4F072E7EE0B595A7959795879566
:102E00007A95D1F7702DA8019701BC01CD010E94E0
:102E10001523DC01CB0189839A83AB83BC83E980D2
:102E2000FA800B811C8189819A81AB81BC819C01D4
:102E3000AD01012E1FE055954795379527951A95B9
:102E4000D1F7102D89819A81AB81BC81072E7FE05B
:102E5000B595A795979587957A95D1F7702DBC0173
:102E6000CD010E941523DC01CB019C01AD016894CA
:102E700016F855954795379527951694D1F7809173
:102E80002529882F90E0A0E0B0E0BC01CD010E9490
:102E90001523DC01CB01689413F8B595A795979598
:102EA00087951694D1F7A8019701281B390B4A0B77
:102EB0005B0BDA01C90189839A83AB83BC83898167
:102EC0009A81AB81BC81BB232CF089819A81AB8133
:102ED000BC8103C080E090E0DC0189839A83AB83EE
:102EE000BC8389819A81AB81BC810197A105B941DD
:102EF0002CF489819A81AB81BC8104C080E090E090
:102F0000A0E0B9E189839A83AB83BC8389819A81EC
:102F1000AB81BC81072E7CE0B595A79597958795E9
:102F20007A95D1F7702D8D839E83AF83B8878D817D
:102F30009E81AF81B885BC01CD012896CDBFDEBF93
:102F4000DF91CF911F910F91FF90EF90DF90CF9085
:102F5000BF90AF900895CF93DF9300D0CDB7DEB789
:102F600089836A834A81698186E70E94090100009A
:102F70000F900F90DF91CF910895CF93DF931F9221
:102F8000CDB7DEB78983698186E70E9452010F9031
:102F9000DF91CF910895CF93DF9300D000D0CDB7CC
:102FA000DEB789836A837B834C838C81282F30E052
:102FB0008A819B81AC01698186E70E94B80100008B
:102FC0002496CDBFDEBFDF91CF910895CF93DF93DD
:102FD000CDB7DEB76097CDBFDEBF8F87988B72C04D
:102FE00080E090E0A0E8BFE389839A83AB83BC8351
:102FF00020E030E04AEF53E469817A818B819C8143
:103000000E942B1FDC01CB018D839E83AF83B88789
:1030100020E030E040E85FE36D817E818F8198851C
:103020000E94C71D88232CF481E090E089879A874D
:103030003FC020E03FEF4FE757E46D817E818F81F5
:1030400098850E94261F18164CF520E030E040E2DB
:1030500051E469817A818B819C810E942B1FDC0164
:10306000CB01BC01CD010E94451EDC01CB0189874B
:103070009A870FC082E390E08B879C878B859C8525
:103080000197F1F78B879C8789859A8501978987B6
:103090009A8789859A85892B69F714C06D817E810D
:1030A0008F8198850E94451EDC01CB0189879A8714
:1030B00089859A858D879E878D859E850197F1F7F5
:1030C0008D879E878F8598899C01215031092F8794
:1030D000388B892B09F084CF00006096CDBFDEBF0E
:1030E000DF91CF910895CF93DF93CDB7DEB70E94E4
:1030F000D60F85E090E00E94E6170E94E20F86E07E
:103100000E94E91080E00E94FF1081E00E941411EB
:1031100081E00E942A1181E00E94401181E00E941A
:103120004E110E94621181E08093E6280000DF9139
:10313000CF910895CF93DF93CDB7DEB79091E62876
:1031400081E08927882311F00E9473180E947C1166
:1031500000000E9490118823E1F70E94A011000056
:10316000DF91CF910895CF93DF9300D000D0CDB7FA
:10317000DEB70E945312DC01CB0189839A83AB83B3
:10318000BC8389819A81AB81BC81BC01CD0124962D
:10319000CDBFDEBFDF91CF910895CF93DF93CDB741
:1031A000DEB70E947D12DC01CB01BC01CD01DF91B5
:1031B000CF910895CF93DF93CDB7DEB70E94A712CA
:1031C000DC01CB01BC01CD01DF91CF910895CF93FC
:1031D000DF93CDB7DEB788E09BE10E94030E83EE5C
:1031E0009AE10E94550A0E94BC1A83E0809342280B
:1031F0000000DF91CF910895CF93DF93CDB7DEB775
:1032000080917F28882F90E0009719F0019721F096
:1032100006C00E94161903C00E944F19000083E0E7
:10322000809342280000DF91CF910895CF93DF93E0
:10323000CDB7DEB780914228882F90E0009719F033
:103240000297C9F028C08091F3280E94DE1C80916B
:10325000F3288A30F9F40E94781C85E090E00E94FF
:10326000351D89E499E20E94A424BC0189E499E215
:103270000E94171B0FC081E080937F288FE598E2A2
:103280000E94A424BC018FE598E20E94171B0E94B3
:10329000BC1A01C000000000DF91CF910895CF93C8
:1032A000DF9300D0CDB7DEB780914228882F90E021
:1032B0008130910519F0029731F017C00E947B19F7
:1032C0000E94A51A12C010927F280E94D21A83E48D
:1032D00098E20E94A42489839A8389819A81BC01FF
:1032E00083E498E20E94171B000000000F900F90EB
:1032F000DF91CF910895CF92DF92EF92FF92CF931B
:10330000DF9300D000D0CDB7DEB70E949A180E949C
:10331000B318DC01CB018093E7289093E828A093B1
:10332000E928B093EA2819821A821B821C828091B4
:10333000E7289091E828A091E928B091EA28BC01FB
:10334000CD010E943E1E9B01AC0180E197E2DC01B1
:103350000E945B236B017C018091E7289091E82813
:10336000A091E928B091EA2820E030E048EC52E44E
:10337000BC01CD010E942B1FDC01CB01BC01CD01A2
:103380000E943E1EDC01CB0124E630E0B9010E9420
:103390002523092E000CAA0BBB0B8C0D9D1DAE1D09
:1033A000BF1D89839A83AB83BC838C818F938B8170
:1033B0008F938A818F9389818F9380E29BE8892FF5
:1033C0008F9380E29BE88F9380E499E2892F8F931B
:1033D00080E499E28F930E940E258DB79EB70896E0
:1033E000CDBFDEBF0E94CD18DC01CB018093EB285E
:1033F0009093EC28A093ED28B093EE288091EB28D1
:103400009091EC28A091ED28B091EE2820E030E0DA
:103410004AE754E4BC01CD010E942B1FDC01CB0123
:10342000BC01CD010E943E1EDC01CB012B2F2F934E
:103430002A2F2F93292F2F938F9380E29BE8892F98
:103440008F9380E29BE88F9387E399E2892F8F9394
:1034500087E399E28F930E940E258DB79EB7089659
:10346000CDBFDEBF0E94DA18DC01CB018093EF28CC
:103470009093F028A093F128B093F2288091EF2840
:103480009091F028A091F128B091F228BC01CD01D3
:103490000E943E1E9B01AC0180E197E2DC010E948C
:1034A0005B236B017C018091EF289091F028A09123
:1034B000F128B091F22820E030E048EC52E4BC0161
:1034C000CD010E942B1FDC01CB01BC01CD010E946C
:1034D0003E1EDC01CB0124E630E0B9010E94252329
:1034E000092E000CAA0BBB0B8C0D9D1DAE1DBF1D24
:1034F00089839A83AB83BC838C818F938B818F93D9
:103500008A818F9389818F9380E29BE8892F8F93A3
:1035100080E29BE88F938EE299E2892F8F938EE26F
:1035200099E28F930E940E258DB79EB70896CDBF66
:10353000DEBF000000002496CDBFDEBFDF91CF913B
:10354000FF90EF90DF90CF900895CF93DF93CDB7AA
:10355000DEB767E379E280E50E94421B60E479E22E
:1035600084E50E94421B6EE279E288E40E94421BDD
:103570000000DF91CF910895CF93DF93CDB7DEB7F1
:1035800080E09AE0FC0110A211A280E09AE020E025
:103590003AE0F90120812160FC0120830000DF91E5
:1035A000CF910895CF93DF93CDB7DEB780E09AE057
:1035B00020E03AE0F90120812E7FFC012083000009
:1035C000DF91CF910895CF93DF93CDB7DEB781E040
:1035D0008093422880E09AE021E0FC0123870000EC
:1035E000DF91CF910895CF93DF93CDB7DEB7809170
:1035F000F328882F90E08F9721F482E0809342286F
:1036000003C01092422800000000DF91CF9108957E
:10361000CF93DF93CDB7DEB70E94220F8093F328BC
:1036200081E08093F4280000DF91CF910895CF933B
:10363000DF93CDB7DEB72697CDBFDEBF8B839C83EC
:103640006D837E8319821A820FC02B813C81898110
:103650009A81820F931FFC0180810E94AB0E8981A9
:103660009A81019689839A8329813A818D819E81ED
:103670002817390750F300002696CDBFDEBFDF9133
:10368000CF910895CF93DF9300D01F92CDB7DEB7CF
:1036900089836A837B830E94061D89EB9BE80E94D5
:1036A000A51C8A819B810896FC0110828981882F44
:1036B00090E08035910539F08435910549F08834E2
:1036C000910559F00FC08AEA9BE80E94A51C0AC028
:1036D0008FEA9BE80E94A51C05C084EB9BE80E9432
:1036E000A51C000082EC9BE80E94A51C8A819B819E
:1036F0000E94A51C8EEB9BE80E94A51C81E090E037
:103700000E94351D00002396CDBFDEBFDF91CF9113
:103710000895CF93DF93CDB7DEB784E59CE10E9497
:103720004F0C0E94EC1C0E943A1C0E94A11B0E949C
:10373000D21B0E94EC1C0E943A1C0000DF91CF912A
:103740000895CF93DF931F92CDB7DEB719820E9401
:10375000781C80ED9BE80E94A51C84EC9BE80E94ED
:10376000A51C88E290E00E94351D84EE9BE80E9433
:103770001A1D89838981882381F48CEC9BE80E943F
:10378000A51C84EE9BE80E94A51C84EC9BE80E948B
:10379000A51C88E290E00E94351D00000F90DF918B
:1037A000CF910895CF93DF931F92CDB7DEB71982E3
:1037B0000E94781C83ED9BE80E94A51C84EC9BE88A
:1037C0000E94A51C88E290E00E94351D86E29BE8DD
:1037D0000E941A1D89838981882371F40E94011C2B
:1037E00087E49BE80E94191C88E69BE80E94191C4C
:1037F00089E89BE80E94191C00000F90DF91CF918F
:103800000895CF93DF93CDB7DEB786ED9BE80E9496
:10381000A51C86E29BE80E94A51C84EC9BE80E9404
:10382000A51C88E290E00E94351D0000DF91CF9139
:103830000895CF93DF9300D0CDB7DEB789839A8305
:103840008AED9BE80E94A51C89819A810E94A51C93
:1038500087EE9BE80E94A51C84EC9BE80E94A51CB7
:1038600088E290E00E94351D00000F900F90DF91DC
:10387000CF910895CF93DF93CDB7DEB70E94781C28
:1038800088EC9BE80E94A51C88E290E00E94351D10
:103890006EED7BE889E499E20E94B824892B71F3EC
:1038A0000000DF91CF910895CF93DF931F92CDB7A2
:1038B000DEB70E94740D89838091F5289091F628D7
:1038C0008E35914080F48091F5289091F6289C01E6
:1038D0002F5F3F4F2093F5283093F628875B964D56
:1038E0002981FC01208300000F90DF91CF91089582
:1038F000CF93DF93CDB7DEB74EE551E060E070E0E7
:1039000089E499E20E949D241092F5281092F628ED
:103910000000DF91CF910895CF93DF93CDB7DEB74D
:103920000E94430F0E94891B0E94E7188091422841
:10393000833011F00E94FC188091F4288823B1F3A1
:103940001092F4280E94F31AF1CFCF93DF9300D0A6
:10395000CDB7DEB789839A8389819A810E94A42496
:10396000282F89819A81622F0E94BC1C00000F9031
:103970000F90DF91CF910895CF93DF9300D01F92E6
:10398000CDB7DEB789839A836B830BC089819A8117
:103990009C012F5F3F4F29833A83FC0180810E9465
:1039A000DE1C8B819FEF980F9B83882379F70000A3
:1039B0002396CDBFDEBFDF91CF910895CF93DF93E4
:1039C0001F92CDB7DEB7898389810E94F70C000072
:1039D0000F90DF91CF910895CF93DF93CDB7DEB7EE
:1039E00086E694E020E8FC01208381E090E00E94DC
:1039F000351D85E694E020E8FC01208382E390E019
:103A00000E94351D0000DF91CF910895CF93DF9381
:103A1000CDB7DEB740E850E060E070E087EA9AE2B8
:103A20000E949D241092F7281092F8280000DF9140
:103A3000CF910895CF93DF9300D01F92CDB7DEB71B
:103A40008A839B8319828A819B81BC0187EA9AE2DF
:103A50000E94B824892B11F081E089838981239603
:103A6000CDBFDEBFDF91CF910895CF93DF93CDB768
:103A7000DEB76297CDBFDEBF898B9A8B19821A821F
:103A800077C080E090E0A0E7B1E48B839C83AD83B6
:103A9000BE8320E030E04AEF53E46B817C818D816E
:103AA0009E810E942B1FDC01CB018F839887A98701
:103AB000BA8720E030E040E85FE36F817885898550
:103AC0009A850E94C71D88232CF481E090E08B87A3
:103AD0009C873FC020E03FEF4FE757E46F81788538
:103AE00089859A850E94261F18164CF520E030E043
:103AF00040E251E46B817C818D819E810E942B1F6D
:103B0000DC01CB01BC01CD010E94451EDC01CB01D3
:103B10008B879C870FC082E390E08D879E878D8581
:103B20009E850197F1F78D879E878B859C850197F0
:103B30008B879C878B859C85892B69F714C06F8147
:103B4000788589859A850E94451EDC01CB018B878B
:103B50009C878B859C858F87988B8F85988901970B
:103B6000F1F78F87988B89819A81019689839A834F
:103B700029813A8189899A892817390708F481CFE0
:103B800000006296CDBFDEBFDF91CF9108950E9405
:103B9000B11E08F481E008950E94E01D0C94EC1E13
:103BA0000E94E51E58F00E94DE1E40F029F45F3F9F
:103BB00029F00C94D51E51110C94201F0C94DB1E7F
:103BC0000E94FD1E68F39923B1F3552391F3951BD1
:103BD000550BBB27AA2762177307840738F09F5F2E
:103BE0005F4F220F331F441FAA1FA9F335D00E2E9B
:103BF0003AF0E0E832D091505040E695001CCAF708
:103C00002BD0FE2F29D0660F771F881FBB1F2617CA
:103C100037074807AB07B0E809F0BB0B802DBF01A1
:103C2000FF2793585F4F3AF09E3F510578F00C9470
:103C3000D51E0C94201F5F3FE4F3983ED4F3869585
:103C400077956795B795F7959F5FC9F7880F911D91
:103C50009695879597F90895E1E0660F771F881F7D
:103C6000BB1F621773078407BA0720F0621B730B30
:103C7000840BBA0BEE1F88F7E09508950E94451E4D
:103C80006894B1110C94201F08950E94051F88F0BC
:103C90009F5798F0B92F9927B751B0F0E1F0660F10
:103CA000771F881F991F1AF0BA95C9F714C0B13051
:103CB00091F00E941F1FB1E008950C941F1F672F01
:103CC000782F8827B85F39F0B93FCCF38695779580
:103CD0006795B395D9F73EF4909580957095619569
:103CE0007F4F8F4F9F4F0895E89409C097FB3EF494
:103CF00090958095709561957F4F8F4F9F4F992339
:103D0000A9F0F92F96E9BB279395F69587957795B6
:103D10006795B795F111F8CFFAF4BB0F11F460FF76
:103D20001BC06F5F7F4F8F4F9F4F16C0882311F0CE
:103D300096E911C0772321F09EE8872F762F05C0E2
:103D4000662371F096E8862F70E060E02AF09A957D
:103D5000660F771F881FDAF7880F9695879597F972
:103D60000895990F0008550FAA0BE0E8FEEF16160C
:103D70001706E807F907C0F012161306E407F5075F
:103D800098F0621B730B840B950B39F40A2661F0D3
:103D9000232B242B252B21F408950A2609F4A14076
:103DA000A6958FEF811D811D089597F99F6780E883
:103DB00070E060E008959FEF80EC089500240A947D
:103DC0001616170618060906089500240A941216F6
:103DD0001306140605060895092E0394000C11F429
:103DE000882352F0BB0F40F4BF2B11F460FF04C0D6
:103DF0006F5F7F4F8F4F9F4F089557FD9058440F2F
:103E0000551F59F05F3F71F04795880F97FB991F39
:103E100061F09F3F79F087950895121613061406F6
:103E2000551FF2CF4695F1DF08C016161706180683
:103E3000991FF1CF86957105610508940895E8945E
:103E4000BB2766277727CB0197F908950E94B11EFB
:103E500008F48FEF08950E943E1F0C94EC1E0E9400
:103E6000DE1E38F00E94E51E20F0952311F00C9420
:103E7000D51E0C94DB1E11240C94201F0E94FD1EE5
:103E800070F3959FC1F3950F50E0551F629FF001AD
:103E9000729FBB27F00DB11D639FAA27F00DB11DC6
:103EA000AA1F649F6627B00DA11D661F829F22274F
:103EB000B00DA11D621F739FB00DA11D621F839FD6
:103EC000A00D611D221F749F3327A00D611D231FAC
:103ED000849F600D211D822F762F6A2F11249F57FA
:103EE00050409AF0F1F088234AF0EE0FFF1FBB1FFD
:103EF000661F771F881F91505040A9F79E3F5105BC
:103F000080F00C94D51E0C94201F5F3FE4F3983E84
:103F1000D4F3869577956795B795F795E7959F5F65
:103F2000C1F7FE2B880F911D9695879597F90895F7
:103F3000A0E1B0E0EEE9FFE10C9466237C011B01F7
:103F40006A01FC0116821782838181FF44C39E01AE
:103F50002F5F3F4F3901F7019381F10193FD859167
:103F600093FF81911F01882309F431C3853239F40D
:103F700093FD859193FF81911F01853239F4B7013B
:103F800090E00E94D22456016501E5CF10E0512C4B
:103F9000912CFFE1F915D8F08B3279F038F48032AA
:103FA00079F08332A1F4F92DF0612EC08D3261F0E9
:103FB000803369F4292D21602DC0392D3260932E74
:103FC000892D8460982E2AC0E92DE86015C097FCE1
:103FD0002DC020ED280F2A3088F496FE06C03AE066
:103FE000139F200D1124122F19C08AE0589E200D16
:103FF0001124522EE92DE0629E2E10C08E3231F433
:1040000096FCE5C2F92DF0649F2E08C08C3621F491
:10401000292D2068922E02C0883641F4F10193FDCB
:10402000859193FF81911F018111B3CF9BEB980F75
:10403000933020F4992D9061805E07C09BE9980F22
:10404000933008F066C1992D9F7E96FF16E09F730E
:10405000992E853619F49064992E08C0863621F47D
:10406000392F3068932E02C01111115097FE07C0EE
:104070001C3350F444244394410E27E00BC0183005
:1040800038F027E017E005C027E09CE3492E02C086
:10409000212F412C560184E0A80EB11CF60160814D
:1040A000718182819381042DA3010E94BA236C0146
:1040B000F981FC87F0FF02C0F3FF06C091FC06C047
:1040C00092FE06C000E205C00DE203C00BE201C093
:1040D00000E08C858C7019F001115AC29BC297FECA
:1040E00010C04C0CFC85F4FF04C08A81813309F4B4
:1040F0004A94141474F528E0241578F588E0482EC5
:104100002CC096FC2AC0812F90E08C159D059CF058
:104110003CEFC3163FEFD30674F0892D8068982ECC
:104120000AC0E2E0F0E0EC0FFD1FE10FF11D80811D
:10413000803319F411501111F4CF97FE0EC04424AE
:104140004394410E812F90E0C816D9062CF41C1917
:1041500004C04424439401C010E097FE06C01C1420
:104160001D0434F4C601019605C085E090E002C04C
:1041700081E090E001110196112331F0212F30E010
:104180002F5F3F4F820F931F252D30E0821793073B
:1041900014F4581A01C0512C892D897049F4552006
:1041A00039F0B70180E290E00E94D2245A94F7CF10
:1041B000002329F0B701802F90E00E94D22493FCC5
:1041C00009C0552039F0B70180E390E00E94D22465
:1041D0005A94F7CF97FE4CC04601D7FE02C0812CFF
:1041E000912CC60188199909F301E80FF91FED8791
:1041F000FE879601241931092F87388B012F10E093
:104200001195019511093FEF8316930629F4B70123
:104210008EE290E00E94D224C814D9044CF08F851D
:1042200098898815990524F4ED85FE85818101C062
:1042300080E3F1E08F1A91082D853E852F5F3F4F77
:104240002D873E87801691062CF0B70190E00E94E2
:10425000D224D9CFC814D90441F49A81963320F4DA
:10426000953319F43C8534FF81E3B70190E04EC0EB
:104270008A81813319F09C859F7E9C87B70190E0ED
:104280000E94D224111105C094FC18C085E690E06C
:1042900017C0B7018EE290E00E94D2241E5F82E038
:1042A00001E0080FF301E80FF11D8081B70190E0F4
:1042B0000E94D224802F0113F3CFE6CF85E490E053
:1042C000B7010E94D224D7FC06C0C114D10441F426
:1042D000EC85E4FF05C0D194C194D1088DE201C002
:1042E0008BE2B70190E00E94D22480E32AE0C2165C
:1042F000D1042CF08F5FFAE0CF1AD108F7CFB701C5
:1043000090E00E94D224B701C601C0960E94D22438
:1043100054C1833631F0833779F0833509F056C0C4
:1043200020C0560132E0A30EB11CF60180818983C2
:1043300001E010E0630112C05601F2E0AF0EB11CC3
:10434000F601C080D18096FE03C0612F70E002C0EC
:104350006FEF7FEFC6010E94AD248C01F92DFF772E
:1043600014C0560122E0A20EB11CF601C080D1801B
:1043700096FE03C0612F70E002C06FEF7FEFC601B1
:104380000E9492248C01F92DF0689F2EF3FD1AC033
:10439000852D90E008171907A8F4B70180E290E096
:1043A0000E94D2245A94F4CFF60197FC859197FE8F
:1043B00081916F01B70190E00E94D22451105A946C
:1043C000015011090115110579F7F7C0843611F074
:1043D000893661F5560197FE09C024E0A20EB11C92
:1043E000F60160817181828193810AC0F2E0AF0E93
:1043F000B11CF60160817181072E000C880B990BAE
:10440000F92DFF769F2E97FF09C0909580957095A6
:1044100061957F4F8F4F9F4FF0689F2E2AE030E0CD
:10442000A3010E943025C82EC6183FC0092D85372C
:1044300021F40F7E2AE030E01DC0097F8F3691F015
:1044400018F4883559F0C3C0803719F0883711F057
:10445000BEC0006104FF09C0046007C094FE08C02C
:10446000066006C028E030E005C020E130E002C070
:1044700020E132E0560107FF09C084E0A80EB11C1C
:10448000F601608171818281938108C0F2E0AF0EF4
:10449000B11CF6016081718180E090E0A3010E946F
:1044A0003025C82EC6180F77902E96FE0BC0092D0A
:1044B0000E7FC11650F494FE0AC092FC08C0092D6C
:1044C0000E7E05C0DC2C092D03C0DC2C01C0D12ED2
:1044D00004FF0DC0FE01EC0DF11D8081803311F44D
:1044E000097E09C002FF06C0D394D39404C0802F74
:1044F000867809F0D39403FD11C000FF06C01C2D7F
:10450000D51480F4150D1D190DC0D51458F4B7013C
:1045100080E290E00E94D224D394F7CFD51410F417
:104520005D1801C0512C04FF10C0B70180E390E07A
:104530000E94D22402FF17C001FD03C088E790E06B
:1045400002C088E590E0B7010CC0802F867859F052
:1045500001FF02C08BE201C080E207FD8DE2B701DE
:1045600090E00E94D224C11638F4B70180E390E0B5
:104570000E94D2241150F7CFCA94F301EC0DF11D23
:104580008081B70190E00E94D224C110F5CF15C000
:10459000F4E0F51560F584E0581A93FE1FC0011190
:1045A00027C02C8523FF2AC000EA10E0392D307186
:1045B000932EF8018491811124C0552009F4E4CC94
:1045C000B70180E290E00E94D2245A94F6CFF7011E
:1045D0008681978126C08FEF9FEF23C0B70180E2CD
:1045E00090E00E94D2245A945110F8CFD8CF512C89
:1045F000B701802F90E00E94D224D3CF04EA10E0CC
:10460000D5CF91108052B70190E00E94D2240F5F65
:104610001F4FCFCF23E0251510F483E0BDCF512CE1
:10462000C0CF6096E2E10C947F23DB018F939F93D0
:104630000E945B23BF91AF91A29F800D911DA39F0C
:10464000900DB29F900D1124089597FB072E16F43C
:10465000009407D077FD09D00E94972307FC05D06E
:104660003EF4909581959F4F0895709561957F4F89
:104670000895A1E21A2EAA1BBB1BFD010DC0AA1FA3
:10468000BB1FEE1FFF1FA217B307E407F50720F0BB
:10469000A21BB30BE40BF50B661F771F881F991F36
:1046A0001A9469F760957095809590959B01AC017F
:1046B000BD01CF0108950E94AB23A59F900DB49F2B
:1046C000900DA49F800D911D112408952F923F926B
:1046D0004F925F926F927F928F929F92AF92BF9212
:1046E000CF92DF92EF92FF920F931F93CF93DF93BE
:1046F000CDB7DEB7CA1BDB0BCDBFDEBF09942A885E
:10470000398848885F846E847D848C849B84AA84E5
:10471000B984C884DF80EE80FD800C811B81AA8172
:10472000B981CE0FD11DCDBFDEBFED010895AA1B0B
:10473000BB1B51E107C0AA1FBB1FA617B70710F08C
:10474000A61BB70B881F991F5A95A9F780959095BE
:10475000BC01CD010895A29FB001B39FC001A39FEA
:10476000700D811D1124911DB29F700D811D1124AA
:10477000911D0895283008F027E03327DA01990FBA
:10478000311D87FD916000966105710539F4326035
:104790002E5F3D9330E32A95E1F708959F3F30F077
:1047A00080387105610509F03C5F3C5F3D939130B5
:1047B00008F08068911DDF93CF931F930F93FF92B2
:1047C000EF92192F987F9695E92F96959695E90F78
:1047D000FF27EE5FFE4F99273327EE24FF24A70122
:1047E000E70105900894079428F4360FE71EF81E99
:1047F000491F511D660F771F881F991F0694A1F747
:104800000590079428F4E70EF81E491F561FC11D96
:10481000770F881F991F661F0694A1F705900794CC
:1048200028F4F80E491F561FC71FD11D880F991F66
:10483000661F771F0694A1F70590079420F4490F8F
:10484000561FC71FD81F990F661F771F881F069412
:10485000A9F784911095177041F0D695C795579593
:104860004795F794E7941A95C1F7E8EAF0E0689461
:104870001590159135916591959105907FE273950D
:10488000E118F10A430B560BC90BD009C0F7E10C34
:10489000F11E431F561FC91FD01D7EF4703311F443
:1048A0008A95E6CFE894015030F0080F0AF400270B
:1048B000021708F4202F2395022F7A3328F079E38A
:1048C0007D932A95E9F710C07D932A9589F6069481
:1048D00097956795379517951794E118F10A430B4B
:1048E000560BC90BD00998F023957E9173957A33B6
:1048F00008F070E37C932013B8F77E9170617D938C
:1049000030F0839571E37D9370E32A95E1F71124EC
:10491000EF90FF900F911F91CF91DF91992787FD25
:1049200090950895FC010590615070400110D8F7F2
:10493000809590958E0F9F1F0895DC0101C06D93A7
:1049400041505040E0F70895FC0101900020E9F744
:10495000809590958E0F9F1F0895FC0161507040C7
:1049600001900110D8F7809590958E0F9F1F0895A4
:10497000FB0151915523A9F0BF01DC014D91451771
:104980004111E1F759F4CD010190002049F04D911A
:1049900040154111C9F3FB014111EFCF81E090E0D7
:1049A000019708950F931F93CF93DF93FB0123810A
:1049B00021FD03C08FEF9FEF2CC022FF16C0468160
:1049C0005781248135814217530744F4A081B18176
:1049D0009D012F5F3F4F208331838C932681378148
:1049E0002F5F3F4F2683378314C08B01EC01FB01FF
:1049F0000084F185E02D0995892BE1F6D801169602
:104A00008D919C911797019616968D939C9317976D
:104A1000CE01DF91CF911F910F910895AEE0B0E0EC
:104A2000E4E1F5E20C9474230D891E8986E08C8301
:104A300009831A838FEF9FE78D839E83AE01475EC4
:104A40005F4F6F89788DCE0101960E94981FEF818C
:104A5000F885E00FF11F10822E96E4E00C948D2370
:104A6000FA01AA27283051F1203181F1E8946F939F
:104A70006E7F6E5F7F4F8F4F9F4FAF4FB1E03ED045
:104A8000B4E03CD0670F781F891F9A1FA11D680FE3
:104A9000791F8A1F911DA11D6A0F711D811D911D16
:104AA000A11D20D009F468943F912AE0269F11248B
:104AB0003019305D3193DEF6CF010895462F4770EF
:104AC000405D4193B3E00FD0C9F7F6CF462F4F704A
:104AD000405D4A3318F0495D31FD4052419302D0A8
:104AE000A9F7EACFB4E0A69597958795779567954E
:104AF000BA95C9F700976105710508959B01AC014E
:104B00000A2E06945795479537952795BA95C9F774
:104B1000620F731F841F951FA01D0895F894FFCF87
:104B20002530386C640031454345384430434235C4
:104B300032393131453941324133326132414532C6
:104B400044424343453400314543453846373842B3
:104B500035323931314539413241333241324145C3
:104B600032444243434534003145434539304343A1
:104B700042353239313145394132413332413241A6
:104B80004532444243434534003145434539323090
:104B90003242353239313145394132413332413295
:104BA00041453244424343453400303037320030CF
:104BB0003037350030303738005348572C000D0A55
:104BC00000002C000D0A00002424240073732C0024
:104BD0006773006C730070732C0070632C00434D7E
:0E4BE000443E20003830002C31612C3134006E
:104BEE009606F4060A0747079307FC07A506AE06C6
:104BFE00B706C0061C07260730073D078506CB06FD
:104C0E0046086C08350A3D0A450A4D0A00000002A6
:104C1E0000000000B70B00000000CB0BF50B7F0D62
:104C2E00A90D030D0A436F6D6D616E64205374619F
:104C3E007465204163746976617465640D0A000DB4
:104C4E000A4170706C69636174696F6E2053746190
:104C5E007465204163746976617465640D0A0001A0
:02000004008278
:090000000000020000C00700002E
:00000001FF
